:080000001BC0FECFFDCFFCCFB9
:10000800FBCFFACFF9CFF8CFF7CFF6CFF5CFF4CFB4
:10001800F3CFF2CFF1CFF0CFEFCFEECFEDCF102768
:10002800E80364000A00010000100001100001004C
:10003800F894EE27ECBBF1E0FBBFEBBFE5BF8DE02A
:10004800A2E0BB27ED938A95E9F780E094E0A0E66B
:10005800ED930197E9F7EFE5EDBFE4E0EEBFC0E609
:10006800D1E00EC0AA93E881E062E7B98BE18A95F6
:10007800F1F7369A349BFECF349AE5B1219608956C
:10008800E6E0E7BBE0E0E8BBE4BBE5BBE1BBE2BB25
:10009800E3BFE2BFE2EFEFBDEAE1EEBDE0E0EDBDB8
:1000A800ECBDEEE4E7BDEFE1E6BDE8E4EBBDEAE870
:1000B800EABDE8E4E9BDEAE8E8BDE0E0E2BDE5BDA7
:1000C800E4BDE3BDE9BFE5BFEAB9E0E8E8B9E0E2CD
:1000D800E7B9E6E8E6B9E0E0E0BFEDB9E6BFEAB5C2
:1000E800F0E0DF01EBB563D067D0E8B5F0E0DF0101
:1000F800E9B55DD066D0A0E0B5DF4E2E5524A1E06D
:10010800B1DF6E2E7724A2E0ADDF8E2E9924A3E016
:10011800A9DFAE2EBB24A4E0A5DFCE2EDD24A5E00A
:10012800A1DFF0E0E0936001F0936101A0E5B0E0A9
:100138006DD06414750440F449D04DD020F451D0EA
:10014800EC59FF4F39D00AC06814790470F43ED0D6
:100158004DD020F046D0E456F0402ED0E091630117
:10016800F070EBBDE0916201EABDCA14DB0440F413
:1001780043D031D020F445D0EC59FF4F22D00EC0E7
:10018800E0916001F0916101CE16DF0670F434D081
:100198002DD020F036D0E456F04013D0E091650120
:1001A800F070E9BDE0916401E8BDA5CFFFCFFE2F57
:1001B800E0E0EA0FFB1F0895E0936201F09363010A
:1001C8000895E0936401F09365010895A091620198
:1001D800B09163010895AC59BF4FA930ECE4BE0754
:1001E8000895E0916201F09163010895A456B0402A
:1001F800A63BE4E4BE070895A0916401B0916501AF
:100208000895E0916401F09165010895109639F020
:1002180080ED97E00197F1F7A8951197C9F7089530
:00000001FF
